{
  "_format": "hh-sol-artifact-1",
  "contractName": "BasicNeedsUnitToken",
  "sourceName": "contracts/BasicNeedsUnitToken.sol",
  "abi": [
    {
      "inputs": [],
      "stateMutability": "nonpayable",
      "type": "constructor"
    },
    {
      "inputs": [
        {
          "internalType": "address",
          "name": "target",
          "type": "address"
        }
      ],
      "name": "AddressEmptyCode",
      "type": "error"
    },
    {
      "inputs": [
        {
          "internalType": "address",
          "name": "implementation",
          "type": "address"
        }
      ],
      "name": "ERC1967InvalidImplementation",
      "type": "error"
    },
    {
      "inputs": [],
      "name": "ERC1967NonPayable",
      "type": "error"
    },
    {
      "inputs": [
        {
          "internalType": "address",
          "name": "spender",
          "type": "address"
        },
        {
          "internalType": "uint256",
          "name": "allowance",
          "type": "uint256"
        },
        {
          "internalType": "uint256",
          "name": "needed",
          "type": "uint256"
        }
      ],
      "name": "ERC20InsufficientAllowance",
      "type": "error"
    },
    {
      "inputs": [
        {
          "internalType": "address",
          "name": "sender",
          "type": "address"
        },
        {
          "internalType": "uint256",
          "name": "balance",
          "type": "uint256"
        },
        {
          "internalType": "uint256",
          "name": "needed",
          "type": "uint256"
        }
      ],
      "name": "ERC20InsufficientBalance",
      "type": "error"
    },
    {
      "inputs": [
        {
          "internalType": "address",
          "name": "approver",
          "type": "address"
        }
      ],
      "name": "ERC20InvalidApprover",
      "type": "error"
    },
    {
      "inputs": [
        {
          "internalType": "address",
          "name": "receiver",
          "type": "address"
        }
      ],
      "name": "ERC20InvalidReceiver",
      "type": "error"
    },
    {
      "inputs": [
        {
          "internalType": "address",
          "name": "sender",
          "type": "address"
        }
      ],
      "name": "ERC20InvalidSender",
      "type": "error"
    },
    {
      "inputs": [
        {
          "internalType": "address",
          "name": "spender",
          "type": "address"
        }
      ],
      "name": "ERC20InvalidSpender",
      "type": "error"
    },
    {
      "inputs": [],
      "name": "FailedCall",
      "type": "error"
    },
    {
      "inputs": [],
      "name": "InvalidInitialization",
      "type": "error"
    },
    {
      "inputs": [],
      "name": "NotInitializing",
      "type": "error"
    },
    {
      "inputs": [
        {
          "internalType": "address",
          "name": "owner",
          "type": "address"
        }
      ],
      "name": "OwnableInvalidOwner",
      "type": "error"
    },
    {
      "inputs": [
        {
          "internalType": "address",
          "name": "account",
          "type": "address"
        }
      ],
      "name": "OwnableUnauthorizedAccount",
      "type": "error"
    },
    {
      "inputs": [],
      "name": "UUPSUnauthorizedCallContext",
      "type": "error"
    },
    {
      "inputs": [
        {
          "internalType": "bytes32",
          "name": "slot",
          "type": "bytes32"
        }
      ],
      "name": "UUPSUnsupportedProxiableUUID",
      "type": "error"
    },
    {
      "anonymous": false,
      "inputs": [
        {
          "indexed": true,
          "internalType": "address",
          "name": "owner",
          "type": "address"
        },
        {
          "indexed": true,
          "internalType": "address",
          "name": "spender",
          "type": "address"
        },
        {
          "indexed": false,
          "internalType": "uint256",
          "name": "value",
          "type": "uint256"
        }
      ],
      "name": "Approval",
      "type": "event"
    },
    {
      "anonymous": false,
      "inputs": [
        {
          "indexed": false,
          "internalType": "uint64",
          "name": "version",
          "type": "uint64"
        }
      ],
      "name": "Initialized",
      "type": "event"
    },
    {
      "anonymous": false,
      "inputs": [
        {
          "indexed": true,
          "internalType": "address",
          "name": "previousOwner",
          "type": "address"
        },
        {
          "indexed": true,
          "internalType": "address",
          "name": "newOwner",
          "type": "address"
        }
      ],
      "name": "OwnershipTransferred",
      "type": "event"
    },
    {
      "anonymous": false,
      "inputs": [
        {
          "indexed": true,
          "internalType": "address",
          "name": "from",
          "type": "address"
        },
        {
          "indexed": true,
          "internalType": "address",
          "name": "to",
          "type": "address"
        },
        {
          "indexed": false,
          "internalType": "uint256",
          "name": "value",
          "type": "uint256"
        }
      ],
      "name": "Transfer",
      "type": "event"
    },
    {
      "anonymous": false,
      "inputs": [
        {
          "indexed": true,
          "internalType": "address",
          "name": "implementation",
          "type": "address"
        }
      ],
      "name": "Upgraded",
      "type": "event"
    },
    {
      "inputs": [],
      "name": "UPGRADE_INTERFACE_VERSION",
      "outputs": [
        {
          "internalType": "string",
          "name": "",
          "type": "string"
        }
      ],
      "stateMutability": "view",
      "type": "function"
    },
    {
      "inputs": [
        {
          "internalType": "address",
          "name": "owner",
          "type": "address"
        },
        {
          "internalType": "address",
          "name": "spender",
          "type": "address"
        }
      ],
      "name": "allowance",
      "outputs": [
        {
          "internalType": "uint256",
          "name": "",
          "type": "uint256"
        }
      ],
      "stateMutability": "view",
      "type": "function"
    },
    {
      "inputs": [
        {
          "internalType": "address",
          "name": "spender",
          "type": "address"
        },
        {
          "internalType": "uint256",
          "name": "value",
          "type": "uint256"
        }
      ],
      "name": "approve",
      "outputs": [
        {
          "internalType": "bool",
          "name": "",
          "type": "bool"
        }
      ],
      "stateMutability": "nonpayable",
      "type": "function"
    },
    {
      "inputs": [
        {
          "internalType": "address",
          "name": "account",
          "type": "address"
        }
      ],
      "name": "balanceOf",
      "outputs": [
        {
          "internalType": "uint256",
          "name": "",
          "type": "uint256"
        }
      ],
      "stateMutability": "view",
      "type": "function"
    },
    {
      "inputs": [],
      "name": "decimals",
      "outputs": [
        {
          "internalType": "uint8",
          "name": "",
          "type": "uint8"
        }
      ],
      "stateMutability": "view",
      "type": "function"
    },
    {
      "inputs": [],
      "name": "initialize",
      "outputs": [],
      "stateMutability": "nonpayable",
      "type": "function"
    },
    {
      "inputs": [
        {
          "internalType": "address",
          "name": "to",
          "type": "address"
        },
        {
          "internalType": "uint256",
          "name": "amount",
          "type": "uint256"
        }
      ],
      "name": "mintTo",
      "outputs": [],
      "stateMutability": "nonpayable",
      "type": "function"
    },
    {
      "inputs": [],
      "name": "name",
      "outputs": [
        {
          "internalType": "string",
          "name": "",
          "type": "string"
        }
      ],
      "stateMutability": "view",
      "type": "function"
    },
    {
      "inputs": [],
      "name": "owner",
      "outputs": [
        {
          "internalType": "address",
          "name": "",
          "type": "address"
        }
      ],
      "stateMutability": "view",
      "type": "function"
    },
    {
      "inputs": [],
      "name": "proxiableUUID",
      "outputs": [
        {
          "internalType": "bytes32",
          "name": "",
          "type": "bytes32"
        }
      ],
      "stateMutability": "view",
      "type": "function"
    },
    {
      "inputs": [],
      "name": "renounceOwnership",
      "outputs": [],
      "stateMutability": "nonpayable",
      "type": "function"
    },
    {
      "inputs": [
        {
          "internalType": "enum BasicNeedsUnitToken.Resources",
          "name": "",
          "type": "uint8"
        }
      ],
      "name": "resourceRatios",
      "outputs": [
        {
          "internalType": "uint256",
          "name": "",
          "type": "uint256"
        }
      ],
      "stateMutability": "view",
      "type": "function"
    },
    {
      "inputs": [],
      "name": "symbol",
      "outputs": [
        {
          "internalType": "string",
          "name": "",
          "type": "string"
        }
      ],
      "stateMutability": "view",
      "type": "function"
    },
    {
      "inputs": [],
      "name": "totalSupply",
      "outputs": [
        {
          "internalType": "uint256",
          "name": "",
          "type": "uint256"
        }
      ],
      "stateMutability": "view",
      "type": "function"
    },
    {
      "inputs": [
        {
          "internalType": "address",
          "name": "to",
          "type": "address"
        },
        {
          "internalType": "uint256",
          "name": "value",
          "type": "uint256"
        }
      ],
      "name": "transfer",
      "outputs": [
        {
          "internalType": "bool",
          "name": "",
          "type": "bool"
        }
      ],
      "stateMutability": "nonpayable",
      "type": "function"
    },
    {
      "inputs": [
        {
          "internalType": "address",
          "name": "from",
          "type": "address"
        },
        {
          "internalType": "address",
          "name": "to",
          "type": "address"
        },
        {
          "internalType": "uint256",
          "name": "value",
          "type": "uint256"
        }
      ],
      "name": "transferFrom",
      "outputs": [
        {
          "internalType": "bool",
          "name": "",
          "type": "bool"
        }
      ],
      "stateMutability": "nonpayable",
      "type": "function"
    },
    {
      "inputs": [
        {
          "internalType": "address",
          "name": "newOwner",
          "type": "address"
        }
      ],
      "name": "transferOwnership",
      "outputs": [],
      "stateMutability": "nonpayable",
      "type": "function"
    },
    {
      "inputs": [
        {
          "internalType": "uint256",
          "name": "newRatio",
          "type": "uint256"
        },
        {
          "internalType": "enum BasicNeedsUnitToken.Resources",
          "name": "resource",
          "type": "uint8"
        }
      ],
      "name": "updateResourceData",
      "outputs": [],
      "stateMutability": "nonpayable",
      "type": "function"
    },
    {
      "inputs": [
        {
          "internalType": "address",
          "name": "newImplementation",
          "type": "address"
        },
        {
          "internalType": "bytes",
          "name": "data",
          "type": "bytes"
        }
      ],
      "name": "upgradeToAndCall",
      "outputs": [],
      "stateMutability": "payable",
      "type": "function"
    }
  ],
  "bytecode": "0x60a06040523073ffffffffffffffffffffffffffffffffffffffff1660809073ffffffffffffffffffffffffffffffffffffffff168152506000805534801561004757600080fd5b5061005661005b60201b60201c565b6101e2565b600061006b61015f60201b60201c565b90508060000160089054906101000a900460ff16156100b6576040517ff92ee8a900000000000000000000000000000000000000000000000000000000815260040160405180910390fd5b67ffffffffffffffff80168160000160009054906101000a900467ffffffffffffffff1667ffffffffffffffff161461015c5767ffffffffffffffff8160000160006101000a81548167ffffffffffffffff021916908367ffffffffffffffff1602179055507fc7f505b2f371ae2175ee4913f4499e1f2633a7b5936321eed1cdaeb6115181d267ffffffffffffffff60405161015391906101c7565b60405180910390a15b50565b60008061017061017960201b60201c565b90508091505090565b60007ff0c57e16840df040f15088dc2f81fe391c3923bec73e23a9662efc9c229c6a0060001b905090565b600067ffffffffffffffff82169050919050565b6101c1816101a4565b82525050565b60006020820190506101dc60008301846101b8565b92915050565b6080516124e661020b60003960008181610dfb01528181610e50015261100b01526124e66000f3fe6080604052600436106101145760003560e01c80635316ce01116100a057806395d89b411161006457806395d89b4114610380578063a9059cbb146103ab578063ad3cb1cc146103e8578063dd62ed3e14610413578063f2fde38b1461045057610114565b80635316ce01146102ad57806370a08231146102ea578063715018a6146103275780638129fc1c1461033e5780638da5cb5b1461035557610114565b806323b872dd116100e757806323b872dd146101d5578063313ce56714610212578063449a52f81461023d5780634f1ef2861461026657806352d1902d1461028257610114565b806306fdde0314610119578063095ea7b31461014457806318160ddd1461018157806318468650146101ac575b600080fd5b34801561012557600080fd5b5061012e610479565b60405161013b9190611b06565b60405180910390f35b34801561015057600080fd5b5061016b60048036038101906101669190611bd0565b61051a565b6040516101789190611c2b565b60405180910390f35b34801561018d57600080fd5b5061019661053d565b6040516101a39190611c55565b60405180910390f35b3480156101b857600080fd5b506101d360048036038101906101ce9190611c95565b610555565b005b3480156101e157600080fd5b506101fc60048036038101906101f79190611cd5565b61059d565b6040516102099190611c2b565b60405180910390f35b34801561021e57600080fd5b506102276105cc565b6040516102349190611d44565b60405180910390f35b34801561024957600080fd5b50610264600480360381019061025f9190611bd0565b6105d5565b005b610280600480360381019061027b9190611e94565b6105eb565b005b34801561028e57600080fd5b5061029761060a565b6040516102a49190611f09565b60405180910390f35b3480156102b957600080fd5b506102d460048036038101906102cf9190611f24565b61063d565b6040516102e19190611c55565b60405180910390f35b3480156102f657600080fd5b50610311600480360381019061030c9190611f51565b610655565b60405161031e9190611c55565b60405180910390f35b34801561033357600080fd5b5061033c6106ac565b005b34801561034a57600080fd5b506103536106c0565b005b34801561036157600080fd5b5061036a6108d5565b6040516103779190611f8d565b60405180910390f35b34801561038c57600080fd5b5061039561090d565b6040516103a29190611b06565b60405180910390f35b3480156103b757600080fd5b506103d260048036038101906103cd9190611bd0565b6109ae565b6040516103df9190611c2b565b60405180910390f35b3480156103f457600080fd5b506103fd6109d1565b60405161040a9190611b06565b60405180910390f35b34801561041f57600080fd5b5061043a60048036038101906104359190611fa8565b610a0a565b6040516104479190611c55565b60405180910390f35b34801561045c57600080fd5b5061047760048036038101906104729190611f51565b610a9f565b005b60606000610485610b25565b905080600301805461049690612017565b80601f01602080910402602001604051908101604052809291908181526020018280546104c290612017565b801561050f5780601f106104e45761010080835404028352916020019161050f565b820191906000526020600020905b8154815290600101906020018083116104f257829003601f168201915b505050505091505090565b600080610525610b4d565b9050610532818585610b55565b600191505092915050565b600080610548610b25565b9050806002015491505090565b61055d610b67565b816001600083600581111561057557610574612048565b5b600581111561058757610586612048565b5b8152602001908152602001600020819055505050565b6000806105a8610b4d565b90506105b5858285610bee565b6105c0858585610c83565b60019150509392505050565b60006012905090565b6105dd610b67565b6105e78282610d77565b5050565b6105f3610df9565b6105fc82610edf565b6106068282610eea565b5050565b6000610614611009565b7f360894a13ba1a3210667c828492db98dca3e2076cc3735a920a3ca505d382bbc60001b905090565b60016020528060005260406000206000915090505481565b600080610660610b25565b90508060000160008473ffffffffffffffffffffffffffffffffffffffff1673ffffffffffffffffffffffffffffffffffffffff16815260200190815260200160002054915050919050565b6106b4610b67565b6106be6000611090565b565b60006106ca611167565b905060008160000160089054906101000a900460ff1615905060008260000160009054906101000a900467ffffffffffffffff1690506000808267ffffffffffffffff161480156107185750825b9050600060018367ffffffffffffffff1614801561074d575060003073ffffffffffffffffffffffffffffffffffffffff163b145b90508115801561075b575080155b15610792576040517ff92ee8a900000000000000000000000000000000000000000000000000000000815260040160405180910390fd5b60018560000160006101000a81548167ffffffffffffffff021916908367ffffffffffffffff16021790555083156107e25760018560000160086101000a81548160ff0219169083151502179055505b6108566040518060400160405280600981526020017f436f7374546f6b656e00000000000000000000000000000000000000000000008152506040518060400160405280600481526020017f434f4c540000000000000000000000000000000000000000000000000000000081525061117b565b61085f33611191565b61087233683635c9adc5dea00000610d77565b83156108ce5760008560000160086101000a81548160ff0219169083151502179055507fc7f505b2f371ae2175ee4913f4499e1f2633a7b5936321eed1cdaeb6115181d260016040516108c591906120d0565b60405180910390a15b5050505050565b6000806108e06111a5565b90508060000160009054906101000a900473ffffffffffffffffffffffffffffffffffffffff1691505090565b60606000610919610b25565b905080600401805461092a90612017565b80601f016020809104026020016040519081016040528092919081815260200182805461095690612017565b80156109a35780601f10610978576101008083540402835291602001916109a3565b820191906000526020600020905b81548152906001019060200180831161098657829003601f168201915b505050505091505090565b6000806109b9610b4d565b90506109c6818585610c83565b600191505092915050565b6040518060400160405280600581526020017f352e302e3000000000000000000000000000000000000000000000000000000081525081565b600080610a15610b25565b90508060010160008573ffffffffffffffffffffffffffffffffffffffff1673ffffffffffffffffffffffffffffffffffffffff16815260200190815260200160002060008473ffffffffffffffffffffffffffffffffffffffff1673ffffffffffffffffffffffffffffffffffffffff1681526020019081526020016000205491505092915050565b610aa7610b67565b600073ffffffffffffffffffffffffffffffffffffffff168173ffffffffffffffffffffffffffffffffffffffff1603610b195760006040517f1e4fbdf7000000000000000000000000000000000000000000000000000000008152600401610b109190611f8d565b60405180910390fd5b610b2281611090565b50565b60007f52c63247e1f47db19d5ce0460030c497f067ca4cebf71ba98eeadabe20bace00905090565b600033905090565b610b6283838360016111cd565b505050565b610b6f610b4d565b73ffffffffffffffffffffffffffffffffffffffff16610b8d6108d5565b73ffffffffffffffffffffffffffffffffffffffff1614610bec57610bb0610b4d565b6040517f118cdaa7000000000000000000000000000000000000000000000000000000008152600401610be39190611f8d565b60405180910390fd5b565b6000610bfa8484610a0a565b90507fffffffffffffffffffffffffffffffffffffffffffffffffffffffffffffffff811015610c7d5781811015610c6d578281836040517ffb8f41b2000000000000000000000000000000000000000000000000000000008152600401610c64939291906120eb565b60405180910390fd5b610c7c848484840360006111cd565b5b50505050565b600073ffffffffffffffffffffffffffffffffffffffff168373ffffffffffffffffffffffffffffffffffffffff1603610cf55760006040517f96c6fd1e000000000000000000000000000000000000000000000000000000008152600401610cec9190611f8d565b60405180910390fd5b600073ffffffffffffffffffffffffffffffffffffffff168273ffffffffffffffffffffffffffffffffffffffff1603610d675760006040517fec442f05000000000000000000000000000000000000000000000000000000008152600401610d5e9190611f8d565b60405180910390fd5b610d728383836113b3565b505050565b600073ffffffffffffffffffffffffffffffffffffffff168273ffffffffffffffffffffffffffffffffffffffff1603610de95760006040517fec442f05000000000000000000000000000000000000000000000000000000008152600401610de09190611f8d565b60405180910390fd5b610df5600083836113b3565b5050565b7f000000000000000000000000000000000000000000000000000000000000000073ffffffffffffffffffffffffffffffffffffffff163073ffffffffffffffffffffffffffffffffffffffff161480610ea657507f000000000000000000000000000000000000000000000000000000000000000073ffffffffffffffffffffffffffffffffffffffff16610e8d6115f2565b73ffffffffffffffffffffffffffffffffffffffff1614155b15610edd576040517fe07c8dba00000000000000000000000000000000000000000000000000000000815260040160405180910390fd5b565b610ee7610b67565b50565b8173ffffffffffffffffffffffffffffffffffffffff166352d1902d6040518163ffffffff1660e01b8152600401602060405180830381865afa925050508015610f5257506040513d601f19601f82011682018060405250810190610f4f919061214e565b60015b610f9357816040517f4c9c8ce3000000000000000000000000000000000000000000000000000000008152600401610f8a9190611f8d565b60405180910390fd5b7f360894a13ba1a3210667c828492db98dca3e2076cc3735a920a3ca505d382bbc60001b8114610ffa57806040517faa1d49a4000000000000000000000000000000000000000000000000000000008152600401610ff19190611f09565b60405180910390fd5b6110048383611649565b505050565b7f000000000000000000000000000000000000000000000000000000000000000073ffffffffffffffffffffffffffffffffffffffff163073ffffffffffffffffffffffffffffffffffffffff161461108e576040517fe07c8dba00000000000000000000000000000000000000000000000000000000815260040160405180910390fd5b565b600061109a6111a5565b905060008160000160009054906101000a900473ffffffffffffffffffffffffffffffffffffffff169050828260000160006101000a81548173ffffffffffffffffffffffffffffffffffffffff021916908373ffffffffffffffffffffffffffffffffffffffff1602179055508273ffffffffffffffffffffffffffffffffffffffff168173ffffffffffffffffffffffffffffffffffffffff167f8be0079c531659141344cd1fd0a4f28419497f9722a3daafe3b4186f6b6457e060405160405180910390a3505050565b6000806111726116bc565b90508091505090565b6111836116e7565b61118d8282611727565b5050565b6111996116e7565b6111a281611764565b50565b60007f9016d09d72d40fdae2fd8ceac6b6234c7706214fd39c1cd1e609a0528c199300905090565b60006111d7610b25565b9050600073ffffffffffffffffffffffffffffffffffffffff168573ffffffffffffffffffffffffffffffffffffffff160361124b5760006040517fe602df050000000000000000000000000000000000000000000000000000000081526004016112429190611f8d565b60405180910390fd5b600073ffffffffffffffffffffffffffffffffffffffff168473ffffffffffffffffffffffffffffffffffffffff16036112bd5760006040517f94280d620000000000000000000000000000000000000000000000000000000081526004016112b49190611f8d565b60405180910390fd5b828160010160008773ffffffffffffffffffffffffffffffffffffffff1673ffffffffffffffffffffffffffffffffffffffff16815260200190815260200160002060008673ffffffffffffffffffffffffffffffffffffffff1673ffffffffffffffffffffffffffffffffffffffff1681526020019081526020016000208190555081156113ac578373ffffffffffffffffffffffffffffffffffffffff168573ffffffffffffffffffffffffffffffffffffffff167f8c5be1e5ebec7d5bd14f71427d1e84f3dd0314c0f7b2291e5b200ac8c7c3b925856040516113a39190611c55565b60405180910390a35b5050505050565b60006113bd610b25565b9050600073ffffffffffffffffffffffffffffffffffffffff168473ffffffffffffffffffffffffffffffffffffffff1603611413578181600201600082825461140791906121aa565b925050819055506114ec565b60008160000160008673ffffffffffffffffffffffffffffffffffffffff1673ffffffffffffffffffffffffffffffffffffffff168152602001908152602001600020549050828110156114a2578481846040517fe450d38c000000000000000000000000000000000000000000000000000000008152600401611499939291906120eb565b60405180910390fd5b8281038260000160008773ffffffffffffffffffffffffffffffffffffffff1673ffffffffffffffffffffffffffffffffffffffff16815260200190815260200160002081905550505b600073ffffffffffffffffffffffffffffffffffffffff168373ffffffffffffffffffffffffffffffffffffffff160361153757818160020160008282540392505081905550611587565b818160000160008573ffffffffffffffffffffffffffffffffffffffff1673ffffffffffffffffffffffffffffffffffffffff168152602001908152602001600020600082825401925050819055505b8273ffffffffffffffffffffffffffffffffffffffff168473ffffffffffffffffffffffffffffffffffffffff167fddf252ad1be2c89b69c2b068fc378daa952ba7f163c4a11628f55a4df523b3ef846040516115e49190611c55565b60405180910390a350505050565b60006116207f360894a13ba1a3210667c828492db98dca3e2076cc3735a920a3ca505d382bbc60001b6117ea565b60000160009054906101000a900473ffffffffffffffffffffffffffffffffffffffff16905090565b611652826117f4565b8173ffffffffffffffffffffffffffffffffffffffff167fbc7cd75a20ee27fd9adebab32041f755214dbc6bffa90cc0225b39da2e5c2d3b60405160405180910390a26000815111156116af576116a982826118c1565b506116b8565b6116b7611945565b5b5050565b60007ff0c57e16840df040f15088dc2f81fe391c3923bec73e23a9662efc9c229c6a0060001b905090565b6116ef611982565b611725576040517fd7e6bcf800000000000000000000000000000000000000000000000000000000815260040160405180910390fd5b565b61172f6116e7565b6000611739610b25565b90508281600301908161174c9190612380565b508181600401908161175e9190612380565b50505050565b61176c6116e7565b600073ffffffffffffffffffffffffffffffffffffffff168173ffffffffffffffffffffffffffffffffffffffff16036117de5760006040517f1e4fbdf70000000000000000000000000000000000000000000000000000000081526004016117d59190611f8d565b60405180910390fd5b6117e781611090565b50565b6000819050919050565b60008173ffffffffffffffffffffffffffffffffffffffff163b0361185057806040517f4c9c8ce30000000000000000000000000000000000000000000000000000000081526004016118479190611f8d565b60405180910390fd5b8061187d7f360894a13ba1a3210667c828492db98dca3e2076cc3735a920a3ca505d382bbc60001b6117ea565b60000160006101000a81548173ffffffffffffffffffffffffffffffffffffffff021916908373ffffffffffffffffffffffffffffffffffffffff16021790555050565b60606000808473ffffffffffffffffffffffffffffffffffffffff16846040516118eb9190612499565b600060405180830381855af49150503d8060008114611926576040519150601f19603f3d011682016040523d82523d6000602084013e61192b565b606091505b509150915061193b8583836119a2565b9250505092915050565b6000341115611980576040517fb398979f00000000000000000000000000000000000000000000000000000000815260040160405180910390fd5b565b600061198c611167565b60000160089054906101000a900460ff16905090565b6060826119b7576119b282611a31565b611a29565b600082511480156119df575060008473ffffffffffffffffffffffffffffffffffffffff163b145b15611a2157836040517f9996b315000000000000000000000000000000000000000000000000000000008152600401611a189190611f8d565b60405180910390fd5b819050611a2a565b5b9392505050565b600081511115611a445780518082602001fd5b6040517fd6bda27500000000000000000000000000000000000000000000000000000000815260040160405180910390fd5b600081519050919050565b600082825260208201905092915050565b60005b83811015611ab0578082015181840152602081019050611a95565b60008484015250505050565b6000601f19601f8301169050919050565b6000611ad882611a76565b611ae28185611a81565b9350611af2818560208601611a92565b611afb81611abc565b840191505092915050565b60006020820190508181036000830152611b208184611acd565b905092915050565b6000604051905090565b600080fd5b600080fd5b600073ffffffffffffffffffffffffffffffffffffffff82169050919050565b6000611b6782611b3c565b9050919050565b611b7781611b5c565b8114611b8257600080fd5b50565b600081359050611b9481611b6e565b92915050565b6000819050919050565b611bad81611b9a565b8114611bb857600080fd5b50565b600081359050611bca81611ba4565b92915050565b60008060408385031215611be757611be6611b32565b5b6000611bf585828601611b85565b9250506020611c0685828601611bbb565b9150509250929050565b60008115159050919050565b611c2581611c10565b82525050565b6000602082019050611c406000830184611c1c565b92915050565b611c4f81611b9a565b82525050565b6000602082019050611c6a6000830184611c46565b92915050565b60068110611c7d57600080fd5b50565b600081359050611c8f81611c70565b92915050565b60008060408385031215611cac57611cab611b32565b5b6000611cba85828601611bbb565b9250506020611ccb85828601611c80565b9150509250929050565b600080600060608486031215611cee57611ced611b32565b5b6000611cfc86828701611b85565b9350506020611d0d86828701611b85565b9250506040611d1e86828701611bbb565b9150509250925092565b600060ff82169050919050565b611d3e81611d28565b82525050565b6000602082019050611d596000830184611d35565b92915050565b600080fd5b600080fd5b7f4e487b7100000000000000000000000000000000000000000000000000000000600052604160045260246000fd5b611da182611abc565b810181811067ffffffffffffffff82111715611dc057611dbf611d69565b5b80604052505050565b6000611dd3611b28565b9050611ddf8282611d98565b919050565b600067ffffffffffffffff821115611dff57611dfe611d69565b5b611e0882611abc565b9050602081019050919050565b82818337600083830152505050565b6000611e37611e3284611de4565b611dc9565b905082815260208101848484011115611e5357611e52611d64565b5b611e5e848285611e15565b509392505050565b600082601f830112611e7b57611e7a611d5f565b5b8135611e8b848260208601611e24565b91505092915050565b60008060408385031215611eab57611eaa611b32565b5b6000611eb985828601611b85565b925050602083013567ffffffffffffffff811115611eda57611ed9611b37565b5b611ee685828601611e66565b9150509250929050565b6000819050919050565b611f0381611ef0565b82525050565b6000602082019050611f1e6000830184611efa565b92915050565b600060208284031215611f3a57611f39611b32565b5b6000611f4884828501611c80565b91505092915050565b600060208284031215611f6757611f66611b32565b5b6000611f7584828501611b85565b91505092915050565b611f8781611b5c565b82525050565b6000602082019050611fa26000830184611f7e565b92915050565b60008060408385031215611fbf57611fbe611b32565b5b6000611fcd85828601611b85565b9250506020611fde85828601611b85565b9150509250929050565b7f4e487b7100000000000000000000000000000000000000000000000000000000600052602260045260246000fd5b6000600282049050600182168061202f57607f821691505b60208210810361204257612041611fe8565b5b50919050565b7f4e487b7100000000000000000000000000000000000000000000000000000000600052602160045260246000fd5b6000819050919050565b600067ffffffffffffffff82169050919050565b6000819050919050565b60006120ba6120b56120b084612077565b612095565b612081565b9050919050565b6120ca8161209f565b82525050565b60006020820190506120e560008301846120c1565b92915050565b60006060820190506121006000830186611f7e565b61210d6020830185611c46565b61211a6040830184611c46565b949350505050565b61212b81611ef0565b811461213657600080fd5b50565b60008151905061214881612122565b92915050565b60006020828403121561216457612163611b32565b5b600061217284828501612139565b91505092915050565b7f4e487b7100000000000000000000000000000000000000000000000000000000600052601160045260246000fd5b60006121b582611b9a565b91506121c083611b9a565b92508282019050808211156121d8576121d761217b565b5b92915050565b60008190508160005260206000209050919050565b60006020601f8301049050919050565b600082821b905092915050565b6000600883026122407fffffffffffffffffffffffffffffffffffffffffffffffffffffffffffffffff82612203565b61224a8683612203565b95508019841693508086168417925050509392505050565b600061227d61227861227384611b9a565b612095565b611b9a565b9050919050565b6000819050919050565b61229783612262565b6122ab6122a382612284565b848454612210565b825550505050565b600090565b6122c06122b3565b6122cb81848461228e565b505050565b5b818110156122ef576122e46000826122b8565b6001810190506122d1565b5050565b601f82111561233457612305816121de565b61230e846121f3565b8101602085101561231d578190505b612331612329856121f3565b8301826122d0565b50505b505050565b600082821c905092915050565b600061235760001984600802612339565b1980831691505092915050565b60006123708383612346565b9150826002028217905092915050565b61238982611a76565b67ffffffffffffffff8111156123a2576123a1611d69565b5b6123ac8254612017565b6123b78282856122f3565b600060209050601f8311600181146123ea57600084156123d8578287015190505b6123e28582612364565b86555061244a565b601f1984166123f8866121de565b60005b82811015612420578489015182556001820191506020850194506020810190506123fb565b8683101561243d5784890151612439601f891682612346565b8355505b6001600288020188555050505b505050505050565b600081519050919050565b600081905092915050565b600061247382612452565b61247d818561245d565b935061248d818560208601611a92565b80840191505092915050565b60006124a58284612468565b91508190509291505056fea2646970667358221220223abb07c15cd087a5470d8ccb6bfa7b32ff330fe2fefb561ae99310bd1cd3d764736f6c634300081c0033",
  "linkReferences": {},
  "deployedLinkReferences": {}
}